use crate::utils::TEST_MNEMONIC;
use alloy::{
    consensus::Transaction,
    signers::{
        SignerSync,
        local::{MnemonicBuilder, PrivateKeySigner},
    },
};
use alloy_eips::Decodable2718;
use alloy_primitives::{Address, TxKind, U256};
use reth_ethereum::{
    evm::revm::primitives::hex,
    node::builder::{NodeBuilder, NodeHandle},
    pool::TransactionPool,
    primitives::SignerRecoverable,
    tasks::Runtime,
};
use reth_node_builder::BuiltPayload;
use reth_node_core::{args::RpcServerArgs, node_config::NodeConfig};
use reth_primitives_traits::transaction::{TxHashRef, error::InvalidTransactionError};
use reth_transaction_pool::{
    TransactionOrigin,
    error::{InvalidPoolTransactionError, PoolError, PoolErrorKind},
    pool::AddedTransactionState,
};
use std::sync::Arc;
use tempo_chainspec::spec::{TEMPO_T1_BASE_FEE, TempoChainSpec};
use tempo_node::node::TempoNode;
use tempo_precompiles::{DEFAULT_FEE_TOKEN, tip_fee_manager::TipFeeManager};
use tempo_primitives::{
    TempoTransaction, TempoTxEnvelope,
    transaction::{calc_gas_balance_spending, tempo_transaction::Call},
};

#[tokio::test(flavor = "multi_thread")]
async fn submit_pending_tx() -> eyre::Result<()> {
    reth_tracing::init_test_tracing();
    let runtime = Runtime::test();
    let chain_spec = TempoChainSpec::from_genesis(serde_json::from_str(include_str!(
        "../assets/test-genesis.json"
    ))?);

    let node_config = NodeConfig::new(Arc::new(chain_spec))
        .with_unused_ports()
        .dev()
        .with_rpc(RpcServerArgs::default().with_unused_ports().with_http());

    let NodeHandle {
        node,
        node_exit_future: _,
    } = NodeBuilder::new(node_config.clone())
        .testing_node(runtime.clone())
        .node(TempoNode::default())
        .launch()
        .await?;

    // <cast mktx 0x20c0000000000000000000000000000000000000 'transfer(address,uint256)' 0x3C44CdDdB6a900fa2b585dd299e03d12FA4293BC 100000000 --private-key 0x59c6995e998f97a5a0044966f0945389dc9e86dae88c7a8412f4603b6b78690d --gas-limit 2000000 --gas-price 44000000000000 --priority-gas-price 1 --chain-id 1337 --nonce 0>
    let raw = hex!(
        "0x02f8b082053980018628048c5ec000831e84809420c000000000000000000000000000000000000080b844a9059cbb0000000000000000000000003c44cdddb6a900fa2b585dd299e03d12fa4293bc0000000000000000000000000000000000000000000000000000000005f5e100c001a0e7f78bca071cc3f0b41dabdee8b3b97c47ca8bfe3bf86861ba06cd97567d61f6a02ad11d6959be0eba004f1f3336c8b1c90aced228a00cbd5af990b519792e7b87"
    );

    let tx = TempoTxEnvelope::decode_2718_exact(&raw[..])?.try_into_recovered()?;
    let signer = tx.signer();
    let slot = TipFeeManager::new().user_tokens[signer].slot();
    println!("Submitting tx from {signer} with fee manager token slot 0x{slot:x}");

    let res = node
        .pool
        .add_consensus_transaction(tx, TransactionOrigin::Local)
        .await
        .unwrap();
    assert!(matches!(res.state, AddedTransactionState::Pending));
    let pooled_tx = node.pool.get_transactions_by_sender(signer);
    assert_eq!(pooled_tx.len(), 1);

    let best = node.pool.best_transactions().next().unwrap();
    assert_eq!(res.hash, *best.hash());

    Ok(())
}

#[tokio::test(flavor = "multi_thread")]
async fn test_insufficient_funds() -> eyre::Result<()> {
    reth_tracing::init_test_tracing();
    let runtime = Runtime::test();
    let chain_spec = TempoChainSpec::from_genesis(serde_json::from_str(include_str!(
        "../assets/test-genesis.json"
    ))?);

    let node_config = NodeConfig::new(Arc::new(chain_spec))
        .with_unused_ports()
        .dev()
        .with_rpc(RpcServerArgs::default().with_unused_ports().with_http());

    let NodeHandle {
        node,
        node_exit_future: _,
    } = NodeBuilder::new(node_config.clone())
        .testing_node(runtime.clone())
        .node(TempoNode::default())
        .launch()
        .await?;

    let tx = TempoTransaction {
        chain_id: 1,
        nonce: U256::random().saturating_to(),
        fee_token: Some(DEFAULT_FEE_TOKEN),
        max_priority_fee_per_gas: 74982851675,
        max_fee_per_gas: 74982851675,
        gas_limit: 1015288,
        calls: vec![Call {
            to: Address::random().into(),
            value: U256::ZERO,
            input: alloy_primitives::Bytes::new(),
        }],
        ..Default::default()
    };
    let signer = PrivateKeySigner::random();

    let signature = signer.sign_hash_sync(&tx.signature_hash()).unwrap();
    let tx: TempoTxEnvelope = tx.clone().into_signed(signature.into()).into();

    let res = node
        .pool
        .add_consensus_transaction(tx.clone().try_into_recovered()?, TransactionOrigin::Local)
        .await;

    let Err(PoolError {
        hash: _,
        kind:
            PoolErrorKind::InvalidTransaction(InvalidPoolTransactionError::Consensus(
                InvalidTransactionError::InsufficientFunds(err),
            )),
    }) = res
    else {
        panic!("Expected InvalidTransaction error, got {res:?}");
    };

    assert_eq!(err.got, U256::ZERO);
    assert_eq!(
        err.expected,
        calc_gas_balance_spending(tx.gas_limit(), tx.max_fee_per_gas())
    );

    Ok(())
}

/// Test that AA transactions with expired `valid_before` are evicted from the pool.
#[tokio::test(flavor = "multi_thread")]
async fn test_evict_expired_aa_tx() -> eyre::Result<()> {
    reth_tracing::init_test_tracing();

    // Setup node, and signer
    let mut setup = crate::utils::TestNodeBuilder::new()
        .build_with_node_access()
        .await?;
    let signer_wallet = MnemonicBuilder::from_phrase(TEST_MNEMONIC).build()?;
    let signer_addr = signer_wallet.address();

    let payload = setup.node.advance_block().await?;
    let tip_timestamp = payload.block().header().inner.timestamp;

    let tx_aa = TempoTransaction {
        chain_id: 1337,
        max_priority_fee_per_gas: TEMPO_T1_BASE_FEE as u128,
        max_fee_per_gas: TEMPO_T1_BASE_FEE as u128,
        gas_limit: 1_000_000,
        calls: vec![Call {
            to: TxKind::Call(Address::ZERO),
            value: U256::ZERO,
            input: alloy_primitives::Bytes::new(),
        }],
        fee_token: Some(DEFAULT_FEE_TOKEN),
        valid_before: Some(tip_timestamp + 5),
        ..Default::default()
    };

    // Sign the AA transaction
    let signature = signer_wallet.sign_hash_sync(&tx_aa.signature_hash())?;
    let envelope: TempoTxEnvelope = tx_aa.into_signed(signature.into()).into();
    let recovered = envelope.try_into_recovered()?;
    let tx_hash = *recovered.tx_hash();
    assert_eq!(recovered.signer(), signer_addr);

    // Submit tx to the pool
    let res = setup
        .node
        .inner
        .pool
        .add_consensus_transaction(recovered, TransactionOrigin::Local)
        .await?;

    // Verify transaction is in the pool + pending
    let pooled_txs = setup
        .node
        .inner
        .pool
        .get_transactions_by_sender(signer_addr);

    assert!(matches!(res.state, AddedTransactionState::Pending),);
    assert_eq!(pooled_txs.len(), 1);
    assert_eq!(*pooled_txs[0].hash(), tx_hash,);

    tokio::time::sleep(tokio::time::Duration::from_secs(2)).await;

    // Verify tx is still there before commiting the new block
    let pooled_txs_before = setup
        .node
        .inner
        .pool
        .get_transactions_by_sender(signer_addr);
    assert_eq!(pooled_txs_before.len(), 1);

    setup.node.advance_block().await?;

    // Verify tx is evicted
    tokio::time::sleep(tokio::time::Duration::from_millis(10)).await;
    let pooled_txs_after = setup
        .node
        .inner
        .pool
        .get_transactions_by_sender(signer_addr);
    assert!(pooled_txs_after.is_empty());

    Ok(())
}

/// Test that transactions are NOT evicted when a non-active validator changes their
/// token preference.
///
/// Prior to the fix, any `setValidatorToken` call would trigger eviction of pending
/// transactions that lacked liquidity against the new token. An attacker could exploit
/// this by calling `setValidatorToken` with an obscure token to evict victims' transactions.
///
/// After the fix, eviction only happens if the new token is already in use by actual
/// block producers (tracked via the AMM liquidity cache).
#[tokio::test(flavor = "multi_thread")]
async fn test_evict_tx_on_validator_token_change() -> eyre::Result<()> {
    use crate::utils::{TEST_MNEMONIC, TestNodeBuilder};
    use alloy::signers::local::MnemonicBuilder;
    use alloy_primitives::address;

    reth_tracing::init_test_tracing();

    // Setup node with direct access
    let setup = TestNodeBuilder::new().build_with_node_access().await?;

    // Set up signers - first is validator (coinbase), we use second for user transactions
    let signers = MnemonicBuilder::from_phrase(TEST_MNEMONIC)
        .into_iter()
        .take(2)
        .collect::<Result<Vec<_>, _>>()?;

    let user_signer = signers[1].clone();
    let user_addr = user_signer.address();

    // Create a fake "new validator token" address that is NOT in the active validator set.
    // This simulates an attacker calling setValidatorToken with an obscure token.
    let attacker_token = address!("1234567890123456789012345678901234567890");

    let pool = &setup.node.inner.pool;

    // Submit a transaction that uses DEFAULT_FEE_TOKEN (PATH_USD)
    let tx_default = TempoTransaction {
        chain_id: 1337,
        max_priority_fee_per_gas: TEMPO_T1_BASE_FEE as u128,
        max_fee_per_gas: TEMPO_T1_BASE_FEE as u128,
        gas_limit: 1_000_000,
        calls: vec![Call {
            to: TxKind::Call(Address::ZERO),
            value: U256::ZERO,
            input: alloy_primitives::Bytes::new(),
        }],
        fee_token: Some(DEFAULT_FEE_TOKEN),
        ..Default::default()
    };

    let signature = user_signer.sign_hash_sync(&tx_default.signature_hash())?;
    let envelope: TempoTxEnvelope = tx_default.into_signed(signature.into()).into();
    let recovered = envelope.try_into_recovered()?;
    let tx_hash = *recovered.tx_hash();

    // Submit tx to the pool
    let res = pool
        .add_consensus_transaction(recovered, TransactionOrigin::Local)
        .await?;
    assert!(matches!(res.state, AddedTransactionState::Pending));

    // Verify transaction is in the pool
    let pooled_txs = pool.get_transactions_by_sender(user_addr);
    assert_eq!(pooled_txs.len(), 1);
    assert_eq!(*pooled_txs[0].hash(), tx_hash);

    // Simulate an attacker calling setValidatorToken with a token that:
    // 1. Has no AMM pool with PATH_USD
    // 2. Is NOT in the active validator set (never produced blocks)
    //
    // This should NOT evict the transaction because the attacker's token is not
    // used by any active block producers.
    let updates = tempo_transaction_pool::TempoPoolUpdates {
        validator_token_changes: [(user_addr, attacker_token)].into_iter().collect(),
        ..Default::default()
    };
    pool.evict_invalidated_transactions(&updates);

    // Give time for any eviction to complete
    tokio::time::sleep(tokio::time::Duration::from_millis(10)).await;

    // Transaction should NOT be evicted because the attacker's token is not in
    // the active validator set.
    let pooled_txs_after = pool.get_transactions_by_sender(user_addr);
    assert_eq!(
        pooled_txs_after.len(),
        1,
        "Transaction should NOT be evicted when validator token change is from a non-active validator"
    );
    assert_eq!(*pooled_txs_after[0].hash(), tx_hash);

    Ok(())
}
